:020000040800F2
:1000000000000320DD770008590200085B020008A9
:100010005D0200085F0200086102000800000000A5
:100020000000000000000000000000006302000863
:10003000650200080000000067020008690200086D
:1000400031780008317800083178000831780008EC
:1000500031780008317800083178000831780008DC
:1000600031780008317800083178000831780008CC
:1000700031780008317800083178000831780008BC
:1000800031780008317800083178000831780008AC
:10009000317800083178000831780008317800089C
:1000A000317800083178000831780008317800088C
:1000B000317800083178000831780008317800087C
:1000C000317800083178000831780008317800086C
:1000D000317800083178000831780008317800085C
:1000E000317800083178000831780008317800084C
:1000F000317800083178000831780008317800083C
:10010000317800083178000831780008317800082B
:10011000317800083178000831780008317800081B
:10012000317800083178000831780008317800080B
:1001300031780008317800083178000831780008FB
:1001400031780008317800083178000831780008EB
:1001500031780008317800083178000831780008DB
:1001600031780008317800083178000831780008CB
:1001700031780008317800083178000831780008BB
:08018000317800083178000815
:1001880010B5054C237833B9044B13B10448AFF3C9
:1001980000800123237010BD5804002000000000D7
:1001A80038780008084B10B51BB108480849AFF368
:1001B80000800848036803B910BD074B002BFBD02B
:1001C800BDE81040184700BF00000000387800085C
:1001D8005C0400205404002000000000154B002B94
:1001E80008BF134B9D46A3F5803A00218B460F4666
:1001F8001348144A121A07F0A5F90F4B002B00D028
:1002080098470E4B002B00D098470020002104008F
:100218000D000D48002802D00C4807F055FA07F0E9
:1002280069F92000290007F0BDFA07F053F900BF6B
:1002380000000800000000000000000000000000AE
:100248005804002074040020D1760008DD760008E8
:100258007047FEE7FEE7FEE7FEE770477047704726
:10026800704700003F4AD2F8883043F47003C2F860
:1002780088303D4B1A68002142F001021A609960EB
:100288001A6822F0847222F480321A60374A5A605F
:100298001A6882B022F480221A60D9600091019114
:1002A8001A6842F480321A602F4B1A6802F400323E
:1002B8000192009A01320092019A1AB9009AB2F595
:1002C800A04FF1D11B6813F4003318BF0123019329
:1002D800019B012B244B04BF254A5A601A6C42F03B
:1002E80080521A64234A116841F4404111609968A8
:1002F8009960996841F400419960996841F4A05166
:100308009960196841F080711960174B1B68980152
:10031800FBD5136843F480331360164B5A68D10336
:10032800FBD51A6842F400321A605A689203FCD569
:10033800114B40F205721A60A3F580639A6822F0A7
:1003480003029A609A6842F002029A609A6802F080
:100358000C02082AFAD1034B4FF000629A6002B0EF
:10036800704700BF00ED00E0003802401030002464
:10037800085A400700700040003C0240174A1849DC
:10038800936803F00C03042B03D0082B03D0154B00
:1003980018E0154B16E05068536810F4800F03F00E
:1003A8003F03506814BF104A0E4AB2FBF3F30B4ADE
:1003B8005268C2F30142C0F388100132434352002D
:1003C800B3FBF2F30B60054B9B68C3F303130B44B9
:1003D8001A790B68D3400B60704700BF00380240A1
:1003E800040000200024F40000127A00F0B501F0A7
:1003F80003038FB00025DB00ADF8025007460E4618
:1004080014460195ADF8023003F086FC202302A8BB
:1004180002950395049303F08AFCBDF8020080B2AC
:1004280003F0B4FC3D46EB1BB34204D255F8040B71
:1004380003F0B8FCF7E703F0DBFC082003F034FD19
:10044800019B01330193019BB3F5803F02D0002843
:10045800F3D100E098B906A803F0B2FC069B1BBADA
:100468002360079B1BBA6360089B1BBAA360099BA8
:100478001BBAE3600A9B1BBA2361012000E000203D
:100488000FB0F0BD2DE9F04398468FB003F0030399
:100498000025DB00ADF80050ADF802500195ADF82D
:1004A800003001F00303DB000E4607469146ADF825
:1004B8000230169C03F030FC4023402E03934FF08B
:1004C8002003049302A88CBF4FF48033059502954E
:1004D80088BF059303F02BFCBDF8020080B203F03F
:1004E80055FC3D46EB1BB34204D255F8040B03F010
:1004F80059FCF7E703F07CFC082003F0D5FC019BCE
:1005080001330193019BB3F5803F02D00028F3D15A
:1005180002E008B1002055E0BDF8000080B203F009
:1005280035FC4D46C9EB0503434504D255F8040B89
:1005380003F038FCF6E703F05BFC00230193082086
:1005480003F0B2FC019B01330193019BB3F5803F9B
:1005580002D00028F3D101E00028DBD1BDF8020069
:1005680080B203F013FC3D46EB1BB34204D255F8AE
:10057800040B03F017FCF7E703F03AFC00230193A0
:10058800082003F091FC019B01330193019BB3F513
:10059800803F02D00028F3D101E00028BAD106A894
:1005A80003F00EFC069B1BBA2360079B1BBA636013
:1005B800089B1BBAA360099B1BBAE3600A9B1BBA82
:1005C800236101200FB0BDE8F083000008B52E4B71
:1005D800984205D11020012100F0E0FB102033E003
:1005E8002A4B984207D14FF40030012100F0CAFB92
:1005F8004FF4003042E0264B984207D14FF4802058
:10060800012100F0BFFB4FF4802037E0214B9842D6
:1006180007D14FF40020012100F0B4FB4FF4002073
:100628002CE01D4B984207D14FF48010012100F0B7
:10063800A9FB4FF4801021E0184B984209D12020E3
:10064800012100F0ABFB20200021BDE8084000F0AC
:10065800A5BB134B984207D14FF08040012100F011
:1006680091FB4FF0804009E00E4B98420BD14FF0C0
:100678000040012100F086FB4FF000400021BDE85A
:10068800084000F07FBB08BD001001400044004056
:1006980000480040004C0040005000400014014059
:1006A80000780040007C00407FB5038ACA889BB26E
:1006B80023F440531343038283890E469BB223F4E9
:1006C800B053098923F00C02B3880B4371890B439B
:1006D8009BB213438381838AB2899BB223F440730C
:1006E800134383820446684600F03AFA1A4B9C4248
:1006F80003D003F580639C4201D1039D00E0029D75
:10070800A38931681BB2002B4FF0190202FB05F2D6
:10071800B4BF4D008D00B2FBF5F5A2896426B5FB88
:10072800F6F00001010912B2002A06FB1153ADBF11
:100738001A01D90032313232B5BFB1FBF6F2B2FB41
:10074800F6F302F0070203F00F03B4BF1043184397
:1007580080B2208104B070BD001001404FF41653E0
:1007680003600C2200238380C3800381428183813C
:100778007047038A9BB223F4706210B50B884C88CB
:1007880023438C88C98823430B439BB213430382BA
:1007980010BD0023038043808380C3807047838912
:1007A80019B19BB243F4005303E023F400531B0434
:1007B8001B0C83817047038B03F47F430383038BF4
:1007C8009BB2194301837047838929B16FEA434378
:1007D8006FEA53439BB201E0C3F30E038381704772
:1007E800838A19B19BB243F4006303E023F40063E6
:1007F8001B041B0C83827047C1F30801818070477A
:100808008088C0F308007047038A23F00F031B0495
:100818001B0C0382038A9BB21943018270478389A8
:1008280019B19BB243F0020303E023F002031B0457
:100838001B0C83817047838923F400631B041B0C02
:10084800838183899BB2194381817047038A23F08E
:1008580020031B041B0C0382038A9BB219430182E9
:100868007047038A19B19BB243F4804303E023F431
:1008780080431B041B0C0382704783899BB243F09F
:10088800010383817047838A19B19BB243F008033F
:1008980003E023F008031B041B0C83827047038BBF
:1008A800DBB20383038B9BB243EA012101837047C8
:1008B800838A19B19BB243F0200303E023F020039D
:1008C8001B041B0C83827047838A19B19BB243F0C7
:1008D800100303E023F010031B041B0C83827047F2
:1008E800838A23F004031B041B0C8382838A9BB234
:1008F800194381827047838A19B19BB243F002037E
:1009080003E023F002031B041B0C83827047838AD5
:100918009BB20AB1194301E023EA010181827047C1
:1009280010B5C1F34214012301F01F01012C03FA91
:1009380001F301D10C3003E0022C0CBF103014304D
:1009480012B10268134302E0026822EA030303605B
:1009580010BD0388194214BF012000207047C94305
:1009680089B201807047012310B5C1F3421401F028
:100978001F029C4203FA02F201D1838903E0022C90
:100988000CBF038A838A9BB21340028892B23BB1A0
:10099800090A01238B40134214BF0120002010BD17
:1009A800184610BD090A01238B40DB439BB2038024
:1009B800704700BF0E4B1A68002142F001021A600E
:1009C80099601A6822F0A85222F410221A60094A83
:1009D8005A60094AC3F8842002F18062C3F888206B
:1009E8001A6822F480221A60D960C3F88C10704704
:1009F800003802401030002400300020024B002252
:100A08001A701870704700BF02380240034A136812
:100A180023F0F80343EAC000106070470038024032
:100A2800014B1860704700BF00004742064B002288
:100A380001281A701A7002D0042802D07047187062
:100A4800704705221A70704770380240014B1860D1
:100A5800704700BF800E474210B5029C40EA046010
:100A680001435B08013B41EA821242EA0340014B21
:100A7800586010BD00380240014B1860704700BF35
:100A880060004742120742EA0161034B41EA8010C5
:100A9800C3F88400704700BF00380240014B18605B
:100AA800704700BF68004742120742EA0161034BE2
:100AB80041EA8010C3F88800704700BF0038024040
:100AC800014B1860704700BF70004742014B186027
:100AD800704700BF4C004742034A936823F0EC6319
:100AE800194308439060704700380240034A9368EE
:100AF80023F0784319430843906070470038024058
:100B0800034A936823F0030318439060704700BFBB
:100B180000380240024B986800F00C00704700BF94
:100B280000380240034A936823F0F00318439060AA
:100B3800704700BF00380240034A936823F4E0532B
:100B480018439060704700BF00380240034A93681A
:100B580023F4604343EAC0009060704700380240C5
:100B68001D4A936803F00C03042B10B503D0082B1F
:100B780003D01A4B18E01A4B16E05168536811F469
:100B8800800F03F03F03516814BF154A134AB2FBA4
:100B9800F3F3114A5268C2F30142C1F388110132DA
:100BA8004B435200B3FBF2F30B4A036093680D49C1
:100BB800C3F30313CC5C0368E34043609468C4F355
:100BC80082240C5D23FA04F484609268C2F34232F2
:100BD8008A5CD340C36010BD003802400024F40092
:100BE80000127A001800002000F44073094AB3F597
:100BF800407F01BF936820F0704123F4F81321F47B
:100C0800407104BF0B439360136FC0F30B0018438C
:100C18001067704700380240014B1860704700BFEA
:100C28003C0E4742014B1860704700BF400E4742D8
:100C3800014B1860704700BF5C014742044AD2F874
:100C48008C30013823F01F030343C2F88C307047FF
:100C580000380240054AD2F88C30013823F4F853A2
:100C680043EA0023C2F88C30704700BF00380240C6
:100C7800044AD2F88C3023F440131843C2F88C008D
:100C8800704700BF00380240044AD2F88C3023F481
:100C980040031843C2F88C00704700BF0038024078
:100CA800044AD2F88C3023F440331843C2F88C003D
:100CB800704700BF00380240014B1860704700BF02
:100CC800E0114742044B1A6B09B1104301E022EAD4
:100CD80000001863704700BF00380240044B5A6B8D
:100CE80009B1104301E022EA00005863704700BFD1
:100CF80000380240044B9A6B09B1104301E022EA24
:100D080000009863704700BF00380240044B1A6C1B
:100D180009B1104301E022EA00001864704700BFDF
:100D280000380240044B5A6C09B1104301E022EA32
:100D380000005864704700BF00380240044B1A692D
:100D480009B1104301E022EA00001861704700BFB2
:100D580000380240044B5A6909B1104301E022EA05
:100D680000005861704700BF00380240044B9A6980
:100D780009B1104301E022EA00009861704700BF02
:100D880000380240044B1A6A09B1104301E022EA14
:100D980000001862704700BF00380240044B5A6ACE
:100DA80009B1104301E022EA00005862704700BF11
:100DB80000380240044B1A6D09B1104301E022EAE1
:100DC80000001865704700BF00380240044B5A6D98
:100DD80009B1104301E022EA00005865704700BFDE
:100DE80000380240044B9A6D09B1104301E022EA31
:100DF80000009865704700BF00380240044B1A6E27
:100E080009B1104301E022EA00001866704700BFEC
:100E180000380240044B5A6E09B1104301E022EA3F
:100E280000005866704700BF00380240044B1A782B
:100E380009B1104301E022EA00001870704700BFB2
:100E48000D3802404209012A074B01D11B6803E013
:100E5800022A0CBF1B6F5B6F00F01F0023FA00F023
:100E680000F00100704700BF0038024007B50023BA
:100E780001933120FFF7E6FF019B01330193019BAA
:100E8800B3F5A04F01D00028F3D03120FFF7DAFFE7
:100E9800003018BF012003B05DF804FB024A536F0D
:100EA80043F080735367704700380240034BDB6898
:100EB800184214BF01200020704700BF00380240CC
:100EC800014B1870704700BF0E38024008B50B4B35
:100ED800984207D14FF000700121FFF753FF4FF000
:100EE800007006E04FF080600121FFF74BFF4FF0E4
:100EF80080600021BDE80840FFF744BF006400405F
:100F0800036823F002030360036843F001030360EE
:100F18004FF480334268D20701D4013BFAD14368C9
:100F280013F0010355D08B79012B03680CBF43F0F4
:100F3800800323F080030360CB79012B03680CBF87
:100F480043F0400323F0400303600B7A012B03684E
:100F58000CBF43F0200323F0200303604B7A012BDE
:100F680003680CBF43F0100323F0100303608B7A6F
:100F7800012B03680CBF43F0080323F00803036048
:100F8800CB7A012B03680CBF43F0040323F004035E
:100F980003608B78CA789B0743EA02630A7943EABD
:100FA80002434A7943EA02530A88013A1343C36168
:100FB800036823F0010303604FF480334268D207CB
:100FC80001D5013BFAD1406800F0010080F0010032
:100FD800704718467047827A01239340344AD2F802
:100FE800001241F0010170B5C2F80012D2F81C12CB
:100FF800DC432140C2F81C12017BA1B9D2F80C12C3
:10100800C68845882140C2F80C12817A483145EAE1
:10101800064542F831500288857A8188ED0042EA17
:101028000141244A5151027B012A15D1204A0688E0
:10103800D2F80C1245881943C2F80C12817A48314B
:1010480045EA064542F83150C288857A8188ED0024
:1010580042EA0141174A5151C27A15491AB9D1F8E1
:101068000422224002E0D1F804221A430589C1F87B
:1010780004220F4A2DB9D1F814522C40C1F8144259
:1010880006E0012D02BFD2F814121943C2F8141257
:10109800417B012902BFD2F81C120B43C2F81C3253
:1010A800D2F8003223F00103C2F8003270BD00BF4D
:1010B800006400404466004000238371C3710372DA
:1010C80043728372C3728370C37003230371022354
:1010D80043710123038070470D4BD3F8002242F07F
:1010E8000102C3F80022D3F8002222F47C5222F035
:1010F8000E02C3F80022D3F8002242EA0020C3F807
:101108000002D3F8002222F00102C3F8002270473F
:1011180000640040036811B143F4803301E023F414
:10112800803303607047036899B143F0800303601C
:10113800D0F8843143F48073C0F88431D0F8943106
:1011480043F48073C0F89431D0F8A43143F4807329
:1011580012E023F080030360D0F8843123F4807315
:10116800C0F88431D0F8943123F48073C0F89431F6
:10117800D0F8A43123F48073C0F8A4317047836891
:10118800F0B55C01024607D48368180106D4936859
:10119800DB0005D40420F0BD002002E0012000E0BF
:1011A800022002EB0013D3F8804104F00104C3F8D5
:1011B80080410D7A4C7A2DB90E68D3F8805144EAF3
:1011C800465405E04F68D3F8806145EAC7053543C2
:1011D8002C43C3F880418C7A04F00F048C72D3F846
:1011E800844124F00F04C3F884418D7AD3F88441F4
:1011F8002C43C3F884414C7B8D7B240444EA05646A
:10120800CD7A2C430D7B02EB001244EA0524C2F888
:10121800884102F5C4754A7C8C7C120442EA046257
:10122800CC7B097C224342EA01226A60D3F8802100
:1012380042F00102C3F88021F0BD012908D004D38F
:10124800022918D182680D4B04E082680C4B01E03A
:1012580082680C4B13400A4A93420AD001D833B92A
:1012680009E0084A934204D0044A934201D000207E
:101278007047012070470220704700BF000003102C
:101288000300000400030008012907D002D3022943
:1012980008D07047836843F0800306E0836843F40E
:1012A800004302E0836843F400038360704700EB67
:1012B800011330B5D3F8B04104F00404E4B2147259
:1012C80024B9D3F8B041640D146003E0D3F8B041F9
:1012D800E4085460D3F8B04104F002045472D3F81F
:1012E800B44104F00F049472D3F8B4311B0AD374D8
:1012F80000EB011303F5DC74D3F8B851D572D3F8B9
:10130800B8512D0A1573D3F8B8512D0C5573D3F86D
:10131800B8311B0E93736368D37363681B0A137425
:1013280063681B0C537463681B0E937421B9C368FC
:1013380043F02003C36030BD036943F02003036119
:1013480030BD21B9C36843F02003C3607047036907
:1013580043F020030361704709B9C06802E001291E
:1013680003D1006900F0030070470020704799B965
:10137800036823F0030343F0010303604FF4803351
:10138800426802F00302012A01D0013BF8D140680B
:1013980000F00300012828E0012911D1036823F097
:1013A800030303604FF480334268920701D0013B86
:1013B800FAD1436813F0030F0CBF012000207047D7
:1013C800022916D1036823F0030343F002030360E4
:1013D8004FF48033426802F00302022A01D0013B35
:1013E800F8D1406800F00300022814BF0020012053
:1013F800704700207047036823F0030343F002039B
:101408000360406800F00300831E5842584170474B
:10141800036823F0020303604FF4803342689207A5
:1014280001D5013BFAD1406880F00200C0F34000CA
:101438007047806900F0700070478069000E70473F
:101448008069C0F30740704743690AB1194301E056
:1014580023EA01014161704711F4700F01D08369DB
:101468000BE0CB0101D5436807E00A0101D5836889
:1014780003E08B014CBFC3680369C3F313030B423A
:1014880014BF0120002070470A4B994202D1002363
:10149800836170478A01C1F3130301D5C3607047A4
:1014A8004A0101D5036170470A014CBF836043605C
:1014B800704700BF7000F03043690B405CD0402992
:1014C80042D010D8042933D005D8012927D00229C1
:1014D80054D1C0682FE010292CD0202930D00829F9
:1014E8004CD1C06835E0B1F5006F3BD00CD8B1F5F0
:1014F800007F31D0B1F5806F32D0B1F5807F3DD11A
:10150800806900F001007047B1F5803F1ED0B1F549
:10151800003F1DD0B1F5004F30D1406829E0806808
:1015280000F0013020F08070003018BF01207047B3
:10153800C06806E0006910F0030018BF012070477A
:101548000069C0F3C0007047006902E04068F8E72E
:101558004068C0F3001070478069C0F340007047CE
:10156800806906E0836913F0700F14BF0120002022
:101578007047C0F3800070471846704700207047D6
:10158800B1F5807F35D00CD8082924D004D801299A
:101598001CD004291DD0704720291FD040291FD0F6
:1015A8007047B1F5006F22D006D8B1F5007F20D082
:1015B800B1F5806F1DD07047B1F5803F13D0B1F5FC
:1015C800003F12D0B1F5004F15D110E00A4B8360EF
:1015D8007047082300E01023C3607047082300E029
:1015E800102303617047082304E0102302E000235E
:1015F80083610423436070470101010008B540205E
:101608000121FFF7A7FB40200021BDE80840FFF7B4
:10161800A1BB054B1A6810B142F0040201E022F0A8
:1016280004021A60704700BF00080650014B986812
:10163800704700BF00080650044B1A6810B142F00A
:10164800080201E022F008021A60704700080650FC
:10165800034B5B68184214BF01200020704700BF8D
:1016680000080650024B6FEA00105860704700BF30
:1016780000080650034B5B68184214BF0120002085
:10168800704700BF00080650C043024BC0B2586004
:10169800704700BF0008065008B54FF08060012170
:1016A800FFF77CFB4FF080600021BDE80840FFF7A2
:1016B80075BB244B244A9968114030B599609C68E1
:1016C80041692143046941EA04419960D96811409C
:1016D800D960DC68C1692143846941EA0441D96061
:1016E8001969114019611C69416A2143046A41EA78
:1016F8000441196159690A405A615969C26A0A4321
:10170800816A42EA01425A619969104A0A409A611B
:101718000268996911434268114382681143C2689B
:101728000A439A61426BD96A046B01F07F41D9621E
:10173800DD6A816B294341EA022242EA0442DA6205
:1017480030BD00BF0068014000F800F08F88FE0F30
:101758000023036043608360C36003614361836166
:10176800C361036243628362C36203634363836347
:101778007047054B9A6910B142F0010201E022F06E
:1017880001029A61704700BF00680140044B9A69E2
:1017980010B142F4803201E022F480329A6170473D
:1017A80000680140094B0A4910B59C6921409961BC
:1017B8009C6999699B69C4F30214C1F30221C3F3BC
:1017C800023304604160836010BD00BF00680140BF
:1017D8008F88FE0F02230360436083607047014BCC
:1017E8001864704700680140014B5862704700BF99
:1017F8000068014042680B6830B54C684D6A43EA9E
:10180800044302F47042426043608268CC688B688B
:1018180002F4704243EA04438260836003690A6AFF
:1018280023F0070303610B690361CB698469120420
:1018380042EA03228B691343002443EA0563846167
:1018480083614369CA6A23F0FF0343614B694361BB
:10185800C36923F4E06323F00703C3618B6A13436E
:10186800C361836A84620B6B8362C26A8C6B4B6B45
:1018780002F0E02243EA0443C262C362036B23F42A
:10188800FF6323F007030363CB6B036330BDFF22C1
:1018980042614FF4C0620023826207220360436002
:1018A8008360C36003618361C36103624362C26290
:1018B800036343638363C3637047036811B143F0F1
:1018C800010301E023F0010303607047054B5A6CE4
:1018D80000225A645A6C5B6C120C9BB20260436023
:1018E800704700BF006801400023036043607047F1
:1018F800034B9B6C184214BF01200020704700BFA7
:101908000068014030B503688AB143F00203036000
:10191800C2684B688C6802F07F42C260C5680A687A
:101928002A4342EA032343EA0443C36002E023F064
:1019380002030360014B01225A6230BD0068014076
:1019480000230360436083607047036811B143F06C
:10195800100301E023F010030360024B01225A62D6
:10196800704700BF00680140CA688B68120442EAE9
:1019780003224B6813430A6843EA0263036470470F
:101988000023036043608360C3607047436803F4C7
:1019980070434360836803F470438360164B70B5EB
:1019A800DC68036901EB1441A4B20134013122441B
:1019B8004BB1012B09D09C1E022C08D9072B0CBF58
:1019C8000223012304E0042302E0032300E00223AE
:1019D800C46A056B4E1EC4F30C04033CB4FBF3F459
:1019E800331941EA0341C5F30A03013B134442EAB0
:1019F80003424160826070BD0068014041617047E8
:101A080081627047036970B54BB1012B09D09C1EE8
:101A1800022C08D9072B0CBF0225012504E0042558
:101A280002E0032500E0022544688368C4F30C043F
:101A3800661E0E44C3F30C0344EA064444605C1E6D
:101A4800144443EA044369438360CB1C43EA0141DD
:101A5800C162026370BD03694BB1012B09D09A1EA4
:101A6800022A08D9072B0CBF0222012204E0042213
:101A780002E0032200E00222C36A1B0CB3FBF2F36C
:101A880049B1012909D08A1E022A08D907290CBFA1
:101A98000222012204E0042202E0032200E00222E2
:101AA8005343DA1C42EA0343C36201617047044BA3
:101AB8005A6B09B1104301E022EA000058637047ED
:101AC80000680140034B9B6B184214BF01200020A3
:101AD800704700BF00680140014BD863704700BFE2
:101AE80000680140054B9A6B5B6B034004D01042C1
:101AF80014BF012000207047184670470068014055
:101B0800014BD863704700BF006801402DE9F041E0
:101B18008EB017460546002606A80C46984601963C
:101B280002F0F6FCC02F10D0B7F5807F21D0802FAF
:101B38003AD1236805961BBA0A9363681BBA0B93BC
:101B4800A3681BBA0C93E3682CE04FF480730593E9
:101B580023681BBA089363681BBA0993A3681BBA66
:101B68000A93E3681BBA0B9323691BBA0C93636946
:101B780018E04FF40073059323681BBA0693636853
:101B88001BBA0793A3681BBA0893E3681BBA0993A7
:101B980023691BBA0A9363691BBA0B93A3691BBA1F
:101BA8000C93E3691BBA0D93FDB902F0D7FC04232B
:101BB800029302A838230393049502F064FC06A854
:101BC80002F092FC012002F0D1FC102002F0CEFDC0
:101BD800019B01330193019BB3F5803F02D000289C
:101BE800F3D100E040B9042303E006A802F07CFC2E
:101BF80000230293012500E00025202302A8039377
:101C08008023049302F03FFC02F0A8FC012002F0BC
:101C1800ADFC02F0A3FD00283AD0159F4446149A63
:101C2800C8EB040393422FD275B3206802F0AAFCD4
:101C3800606802F0A7FCA06802F0A4FCE06802F06B
:101C4800A1FC002310340193102002F08FFD019BAA
:101C580001330193019BB3F5803F02D00028F3D1F3
:101C680000E078B902F094FC386002F091FC7860EA
:101C780002F08EFCB86002F08BFC103747F8040CB9
:101C88000125CCE70025CAE7002002F06FFC2846B2
:101C98000EB0BDE8F0812DE9F04693B099460746AD
:101CA8004FF0000A0AA80D4614461A9ECDF804A063
:101CB80002F02EFCB9F1C00F12D0B9F5807F23D005
:101CC800B9F1800F3BD12368CDF814A01BBA0E934D
:101CD80063681BBA0F93A3681BBA1093E3682CE0E0
:101CE8004FF48073059323681BBA0C9363681BBA7F
:101CF8000D93A3681BBA0E93E3681BBA0F9323696D
:101D08001BBA1093636918E04FF4007305932368B6
:101D18001BBA0A9363681BBA0B93A3681BBA0C938C
:101D2800E3681BBA0D9323691BBA0E9363691BBA48
:101D38000F93A3691BBA1093E3691BBA11932B681D
:101D48001BBA06936B681BBA0793AB681BBA089358
:101D5800EB681BBA0993FFB902F000FC0423029355
:101D680002A838230393049702F08DFB0AA802F017
:101D7800BBFB012002F0FAFB102002F0F7FC019BEC
:101D880001330193019BB3F5803F02D00028F3D1C2
:101D980000E040B9042303E00AA802F0A5FB0023F1
:101DA8000293012500E000252823039302A880233D
:101DB800049302F068FB06A802F0B4FB02F0CEFB25
:101DC800012002F0D3FB02F0C9FC002839D01C9F87
:101DD80034461B9AA31B93422FD275B3206802F096
:101DE800D1FB606802F0CEFBA06802F0CBFBE06894
:101DF80002F0C8FB002310340193102002F0B6FC57
:101E0800019B01330193019BB3F5803F02D0002869
:101E1800F3D100E078B902F0BBFB386002F0B8FB00
:101E2800786002F0B5FBB86002F0B2FB103747F8F3
:101E3800040C0125CDE70025CBE7002002F096FB36
:101E4800284613B0BDE8F0862DE9F04693B09946D0
:101E580007464FF0000A0AA80E4614461A9DCDF808
:101E680004A002F055FBB9F1C00F12D0B9F5807F7C
:101E780023D0B9F1800F3BD12368CDF814A01BBA49
:101E88000E9363681BBA0F93A3681BBA1093E36899
:101E98002CE04FF48073059323681BBA0C93636896
:101EA8001BBA0D93A3681BBA0E93E3681BBA0F9372
:101EB80023691BBA1093636918E04FF40073059304
:101EC80023681BBA0A9363681BBA0B93A3681BBAEF
:101ED8000C93E3681BBA0D9323691BBA0E936369CD
:101EE8001BBA0F93A3691BBA1093E3691BBA11932A
:101EF80033681BBA069373681BBA0793B3681BBA97
:101F08000893F3680AA81BBA099302F0EDFA0FB90F
:101F1800042300E0002302933023039302A88023C4
:101F2800049302F0B0FA06A802F0FCFA02F016FBDD
:101F3800012002F01BFB02F011FC002839D01C9F85
:101F48002E4601241B9A731B93422ED26CB3306821
:101F580002F018FB706802F015FBB06802F012FB83
:101F6800F06802F00FFB002310360193102002F0F6
:101F7800FDFB019B01330193019BB3F5803F02D028
:101F88000028F3D100E070B902F002FB386002F0DB
:101F9800FFFA786002F0FCFAB86002F0F9FA10373C
:101FA80047F8040CCDE70024CCE7002002F0DEFA65
:101FB800204613B0BDE8F0862DE9F04F97B04FF0FA
:101FC800000C06460EA8039102920193219FDDF8AA
:101FD8008C80DDF88890259DCDF814C0CDF800C020
:101FE800249C02F095FA019B029A0399C02B4FEAB0
:101FF800C80B4FEAC70A13D0B3F5807F24D0802BD3
:10200800DDF800C03BD11368CDF824C01BBA129389
:1020180053681BBA139393681BBA1493D3682CE0C4
:102028004FF48073099313681BBA109353681BBA53
:10203800119393681BBA1293D3681BBA139313694D
:102048001BBA1493536918E04FF40073099313688B
:102058001BBA0E9353681BBA0F9393681BBA10935D
:10206800D3681BBA119313691BBA129353691BBA2D
:10207800139393691BBA1493D3691BBA15930B680E
:102088001BBA0A934B681BBA0B938B681BBA0C9349
:10209800CB68012E1BBA0D9340F0CD8002F05EFA9A
:1020A8000EA802F021FA0AA802F03CFA4FF4002226
:1020B8000023079206A8802206930093089202F054
:1020C800E2F9009B184602F03FFA304602F04EFA59
:1020D80002F044FB0128FBD0B8F1000F01D1012622
:1020E80035E04FF4803002F02FFA012002F03EFA7A
:1020F80002F034FB08B14E4613E0002076E10120DF
:1021080002F034FB0028FAD0306802F03BFA70681D
:1021180002F038FAB06802F035FAF06802F032FAE4
:102128001036C9EB06034345E9D300230593102075
:1021380002F01CFB059B01330593059BB3F5803F1B
:1021480002D00028F3D1CAE7B0FA80F67609002F4A
:1021580051D04FF4003002F0F7F9012002F006FAEE
:1021680002F0FCFA0028C8D0DDF88080209BC3EB81
:102178000803BB423FD2002E3DD0012002F0F6FA00
:102188000028FAD0D8F8000002F0FCF9D8F80400CA
:1021980002F0F8F9D8F8080002F0F4F9D8F80C00C1
:1021A80002F0F0F9002308F110080593102002F05E
:1021B800DDFA059B01330593059BB3F5803F02D0FB
:1021C8000028F3D100E0A0B9042002F0CFFA0028DB
:1021D800FAD002F0DDF9206002F0DAF9606002F06E
:1021E800D7F9A06002F0D4F9103444F8040C0126A1
:1021F800BCE70026BAE74FF4403002F0A5F9012009
:1022080002F0B4F902F0AAFA00283FF476AF0020F1
:1022180002F0B8F99BFA8BF002F0B4F9002002F052
:10222800B1F99AFA8AF002F0ADF9042002F09EFAA8
:102238000028FAD0CAE002F091F90EA802F054F989
:102248000AA802F06FF9042306934FF400230793BA
:1022580006A88023089302F016F9002002F074F90A
:10226800012002F083F902F079FA0128FBD0B8F1D5
:10227800000F01D1012635E04FF4803002F064F9F7
:10228800012002F073F902F069FA00283FF435AF33
:102298004E46C9EB0603434512D2012002F066FA06
:1022A8000028FAD0306802F06DF9706802F06AF917
:1022B800B06802F067F9F06802F064F91036E8E7F0
:1022C80000230593102002F051FA059B0133059372
:1022D800059BB3F5803F02D00028F3D1CAE7B0FAD6
:1022E80080F67609002F52D04FF4003002F02CF916
:1022F800012002F03BF902F031FA00283FF4FDAE6C
:10230800DDF88080209BC3EB0803BB423FD2002E40
:102318003DD0012002F02AFA0028FAD0D8F80000AF
:1023280002F030F9D8F8040002F02CF9D8F80800C7
:1023380002F028F9D8F80C0002F024F9002308F17B
:1023480010080593102002F011FA059B013305933C
:10235800059BB3F5803F02D00028F3D100E0A0B977
:10236800042002F003FA0028FAD002F011F92060E4
:1023780002F00EF9606002F00BF9A06002F008F9B3
:10238800103444F8040C0126BCE70026BAE74FF4E1
:10239800403002F0D9F8012002F0E8F802F0DEF946
:1023A80000283FF4AAAE002002F0ECF89BFA8BF06C
:1023B80002F0E8F8002002F0E5F89AFA8AF002F054
:1023C800E1F8042002F0D2F90028FAD002F0E0F88F
:1023D800286002F0DDF8686002F0DAF8A86002F020
:1023E800D7F8E860002002F0C1F8304617B0BDE821
:1023F800F08F2DE9F04FA1B04FF000080091019245
:102408004146102283460CA81E46BDF8A8A0DDF858
:10241800B0902E9C2F9DCDF80C80309F05F092F83F
:102428004146102210A805F08DF814A84146102244
:1024380005F088F8DDF804C00CB92D9D31E0B4F53D
:102448007F4F05D2220A6C702A70023402210CE0F8
:10245800FF222A70FE226C716A7085F8028085F866
:10246800038085F80480063406210022A24207D0A2
:102478002D9B681813F802E000F802E00132F5E736
:1024880013070AD022F00F0410342A44511BA1422A
:1024980003D8002102F8011BF8E714B140228DF897
:1024A8003020CCF10E0000F007029DF83000009BB0
:1024B80010439DF8C820911E022291FBF2F202F00F
:1024C800070240EAC2028DF83020591E00226245F8
:1024D8000DF1300805D0013211F8010F08F802009B
:1024E800F5E762460C2A04D801320CA900205054A2
:1024F800F8E74FEA19228DF83E209DF830208DF834
:102508003F9002F007028DF8402001220CF10101F2
:102518008A4205D20CA9505C10A950540132F5E743
:102528009DF84F2018A842F001028DF84F2001F0C5
:10253800EFFFBAF1C00F12D0BAF5807F23D0BAF1FD
:10254800800F3BD10023079333681BBA1C93736831
:102558001BBA1D93B3681BBA1E93F3682CE04FF4A3
:102568008073079333681BBA1A9373681BBA1B935B
:10257800B3681BBA1C93F3681BBA1D9333691BBA63
:102588001E93736918E04FF40073079333681BBAFE
:10259800189373681BBA1993B3681BBA1A93F36834
:1025A8001BBA1B9333691BBA1C9373691BBA1D931F
:1025B800B3691BBA1E93F3691BBA1F93109E33BAF3
:1025C8000893119B1BBA0993129B1BBA0A93139B7E
:1025D800BBF1010F1BBA0B9340F0D98001F0BEFF8D
:1025E80018A801F081FF08A801F09CFF4FF008121D
:1025F8000023059204A8802206920493009301F018
:1026080042FF009B184601F09FFF0C9801F0BAFFAB
:10261800D8F8040001F0B6FFD8F8080001F0B2FFBE
:10262800D8F80C0001F0AEFF584601F09FFF02F009
:1026380095F80128FBD00CB901243AE04FF480301A
:1026480001F082FF012001F091FF02F087F808B144
:10265800A84618E000208BE1012002F087F8002846
:10266800FAD0D8F8000001F08DFFD8F8040001F086
:1026780089FFD8F8080001F085FFD8F80C0001F0B0
:1026880081FF08F11008C5EB0803A342E4D3002337
:102698000393102002F06AF8039B01330393039B12
:1026A800B3F5803F02D00028F3D1C5E7B0FA80F433
:1026B8006409B9F1000F4AD04FF4003001F044FF2B
:1026C800012001F053FF02F049F80028C2D02B9DE9
:1026D8002B9BEB1A4B453AD2002C38D0012002F044
:1026E80045F80028FAD0286801F04CFF686801F026
:1026F80049FFA86801F046FFE86801F043FF00239E
:1027080010350393102002F031F8039B0133039333
:10271800039BB3F5803F02D00028F3D100E0A0B9B5
:10272800042002F023F80028FAD001F031FF3860C5
:1027380001F02EFF786001F02BFFB86001F028FF50
:10274800103747F8040C0124C2E70024C0E74FF40F
:10275800403001F0F9FE012001F008FF01F0FEFF12
:1027680000283FF477AF304601F00CFF119801F0D4
:1027780009FF129801F006FF139820F0807001F00D
:1027880001FF042001F0F2FF0028FAD0D6E001F0A2
:10279800E5FE18A801F0A8FE08A801F0C3FE04236E
:1027A80004934FF00813059304A88023069301F0BF
:1027B8006AFE002001F0C8FE0C9801F0E3FED8F88C
:1027C800040001F0DFFED8F8080001F0DBFED8F8BD
:1027D8000C0001F0D7FE012001F0C8FE01F0BEFF99
:1027E8000128FBD00CB901243AE04FF4803001F005
:1027F800ABFE012001F0BAFE01F0B0FF00283FF463
:1028080029AFA846C5EB0803A34217D2012001F05F
:10281800ADFF0028FAD0D8F8000001F0B3FED8F8D0
:10282800040001F0AFFED8F8080001F0ABFED8F8BC
:102838000C0001F0A7FE08F11008E3E7002303935A
:10284800102001F093FF039B01330393039BB3F51F
:10285800803F02D00028F3D1C5E7B0FA80F46409BC
:10286800B9F1000F4BD04FF4003001F06DFE01209C
:1028780001F07CFE01F072FF00283FF4EBAE2B9DC7
:102888002B9BEB1A4B453AD2002C38D0012001F093
:102898006DFF0028FAD0286801F074FE686801F01E
:1028A80071FEA86801F06EFEE86801F06BFE002377
:1028B80010350393102001F059FF039B0133039354
:1028C800039BB3F5803F02D00028F3D100E0A0B904
:1028D800042001F04BFF0028FAD001F059FE3860BF
:1028E80001F056FE786001F053FEB86001F050FE2A
:1028F800103747F8040C0124C2E70024C0E74FF45E
:10290800403001F021FE012001F030FE01F026FFE9
:1029180000283FF49FAE304601F034FE119801F0D4
:1029280031FE129801F02EFE139820F0807001F00D
:1029380029FE042001F01AFF0028FAD001F028FE31
:10294800149001F025FE159001F022FE169001F07A
:102958001FFE00231790329A934205D014AA31998A
:102968009A5CCA540133F6E7002001F0FFFD2046C7
:1029780021B0BDE8F08F000008B54FF0805001216C
:10298800FEF700FA4FF080500021BDE80840FEF73E
:10299800F9B9014B1860704720000E42034A1368CA
:1029A80023F0E00318431060704700BF0070004038
:1029B800014B1860704700BF10000E42014B1860B1
:1029C800704700BFA0000E42014B1860704700BF5F
:1029D800A4000E42034A136823F4404318431060CE
:1029E800704700BF00700040014B1860704700BF7F
:1029F80040000E42014B1860704700BF44000E4271
:102A0800044B1A6810B142F4402201E022F440223B
:102A18001A60704700700040014B1860704700BF93
:102A280024000E420B4A136823F4406323F0030387
:102A38001843094B10601A69012942F004021A610F
:102A480001D130BF00E020BF1A6922F004021A61E8
:102A5800704700BF0070004000ED00E00B4A1368AB
:102A680023F4406323F003031843094B10601A69E9
:102A7800012942F004021A6101D130BF00E020BFF1
:102A88001A6922F004021A61704700BF0070004002
:102A980000ED00E0074B1A6842F004021A601A6859
:102AA80042F002021A60044A136943F004031361F6
:102AB80030BF70470070004000ED00E0034B5B68DA
:102AC800184214BF01200020704700BF007000406A
:102AD800064BB0F5402F15BF1A685A6842EA8000C5
:102AE80042F4402214BF18605A60704700700040DA
:102AF8002DE9F0418EB00025804606A80C46164602
:102B08001F46019501F004FDB8F1010F1CBF042315
:102B1800029302A84FF0800308BF0295049303951F
:102B280001F0B1FC23681BBA089363681BBA0993C8
:102B3800A3681BBA0A93E3681BBA0B9323691BBAF1
:102B48000C93636906A81BBA0D9301F0CDFC01F044
:102B580005FD012001F00AFD01F000FE80B3DDF85B
:102B6800508000250124BD4226D22CB3705901F0B3
:102B780009FD7319586801F005FD00230193102021
:102B880001F0F4FD019B01330193019BB3F5803FF4
:102B980002D00028F3D100E058B901F0F9FCC8F8D8
:102BA800000001F0F5FC08F1080848F8040C0124BD
:102BB80000E000240835D6E7002001F0D7FC2046C5
:102BC8000EB0BDE8F0812DE9F04393B081460027AF
:102BD8000AA80C46164698461A9D019701F098FCDB
:102BE800B9F1010F1CBF042302934FF008030393AC
:102BF80002A84FF0800308BF0297049301F043FC3A
:102C080023681BBA0C9363681BBA0D93A3681BBA9D
:102C18000E93E3681BBA0F9323691BBA1093636979
:102C28000AA81BBA119301F05FFC33681BBA06931C
:102C3800736806A81BBA079301F074FC01F08EFCB8
:102C4800012001F093FC01F089FD78B31B9F002659
:102C58000124AE4226D22CB358F8060001F092FCAB
:102C680008EB0603586801F08DFC0023019310203F
:102C780001F07CFD019B01330193019BB3F5803F7B
:102C880002D00028F3D100E048B901F081FC386097
:102C980001F07EFC083747F8040C012400E000240A
:102CA8000836D6E7002001F061FC204613B0BDE8E5
:102CB800F0830000014B1868000C7047002004E006
:102CC800024B1868C0F30B00704700BF002004E0F7
:102CD800044B5A6809B1104301E022EA0000586029
:102CE800704700BF002004E0044B9A6809B1104304
:102CF80001E022EA00009860704700BF002004E06D
:102D0800044BDA6809B1104301E022EA0000D860F8
:102D1800704700BF002004E008B54FF4807001211F
:102D2800FEF73CF84FF480700021BDE80840FEF73C
:102D380035B8436823F040720B6822F4807213435D
:102D48000A7943EA02234360CA680B691A438B680D
:102D580010B51A438468084B234013434A7943EA61
:102D680042038360C36A23F470020B7D013BDBB22C
:102D780042EA0353C36210BDFDF7FFC0002303609E
:102D8800037143718360C360036101230375704756
:102D980010B5074C074B6268134090E806001143D2
:102DA80082681143C2680A431343636010BD00BFC1
:102DB80000230140E030FCFF002303604360836090
:102DC800C3607047836811B143F0010301E023F049
:102DD800010383607047436823F4400323F40073BE
:102DE800194341607047416282627047436823F02B
:102DF8001F03194341607047044B5A6810B142F4ED
:102E0800000201E022F400025A60704700230140EA
:102E1800044B5A6810B142F4800201E022F48002A7
:102E28005A60704700230140092970B50CD9A1F1F7
:102E38000A04C66804EB44040725A54026EA0505EC
:102E4800A3402B43C36009E0056901EB4106072451
:102E5800B44025EA0404B34023430361062A0BD88F
:102E6800013A446B02EB82021F23934024EA0303D6
:102E780091401943416370BD0C2A0BD8073A046B83
:102E880002EB82021F23934024EA03039140194373
:102E9800016370BD0D3AC46A02EB82021F2393409E
:102EA80024EA030391401943C16270BD836843F06B
:102EB8008043836070478068C0F380707047836880
:102EC80011B143F4806301E023F4806383607047A9
:102ED800836811B143F0020301E023F00203836029
:102EE80070474368013923F4604343EA4133436040
:102EF8007047436811B143F4006301E023F40063B1
:102F080043607047C06C80B27047014B18687047C7
:102F180008230140836811B143F4807301E023F46E
:102F2800807383607047836811B143F4007301E0D4
:102F380023F4007383607047044B5A6810B142F45D
:102F4800005201E022F400525A6070470023014009
:102F5800092970B50CD9A1F10A04C66804EB440428
:102F68000725A54026EA0505A3402B43C36009E0D1
:102F7800056901EB41060724B44025EA0404B3407F
:102F880023430361836B0232C3F30154121BD2B291
:102F980002EB82021F24944023EA04039140194360
:102FA800816370BD836B013923F4401343EA0153F5
:102FB8008363704782B0002301930190019B1944F9
:102FC8000191019B1A6002B07047836823F4702353
:102FD800194381607047836823F440131943816063
:102FE8007047836843F48003836070478068C0F348
:102FF80080507047436811B143F4806301E023F4C3
:10300800806343607047436811B143F4805301E023
:1030180023F480534360704782B0002301930190EA
:10302800019B283319440191019B186880B202B0B2
:103038007047C9B201238B4012B14268134302E0C2
:10304800426822EA0303436070470368194214BFC9
:10305800012000207047C94301607047426800683A
:1030680010EA112006D0C9B201238B40134214BFC5
:103078000120002070476FEA11210160704700BFEE
:10308800F0B501F003038FB00025DB00ADF8025066
:1030980007460E4614460195ADF8023000F03CFE96
:1030A8008023029302A820230395049300F03FFE97
:1030B800BDF8020080B200F069FE3D46EB1BB3424A
:1030C80004D255F8040B00F06DFEF7E700F090FE0F
:1030D800082000F0E9FE019B01330193019BB3F541
:1030E800803F02D00028F3D100E080B906A800F0A4
:1030F80067FE069B1BBA2360079B1BBA6360089B8D
:103108001BBAA360099B1BBAE360012000E0002002
:103118000FB0F0BD2DE9F04398468FB003F00303DC
:103128000027DB00ADF80070ADF802700197ADF82C
:10313800003001F00303DB000D4606469146ADF86A
:103148000230169C00F0E8FD802302934023402DB6
:1031580003934FF02003049302A88ABF4FF48033EF
:103168000597059300F0E3FDBDF8020080B200F07A
:103178000DFE3746BB1BAB4204D257F8040B00F0D8
:1031880011FEF7E700F034FE082000F08DFE019BE9
:1031980001330193019BB3F5803F02D00028F3D19E
:1031A80002E008B1002052E0BDF8000080B200F053
:1031B800EDFD4F46C9EB0703434504D257F8040B0E
:1031C80000F0F0FDF6E700F013FE0023019308205D
:1031D80000F06AFE019B01330193019BB3F5803F28
:1031E80002D00028F3D101E00028DBD1BDF80200AD
:1031F80080B200F0CBFD3746BB1BAB4204D257F878
:10320800040B00F0CFFDF7E700F0F2FD0023019377
:10321800082000F049FE019B01330193019BB3F59F
:10322800803F02D00028F3D101E00028BAD106A8D7
:1032380000F0C6FD069B1BBA2360079B1BBA6360A0
:10324800089B1BBAA360099B1BBAE36001200FB05F
:10325800BDE8F083044B00221A605A609A60DA6075
:10326800024A5A61704700BF003C0140FFFF7F00DF
:1032780082790168037970B5002A29D0194A15683E
:10328800CE4335401560546803F1804303F59E33FF
:10329800344054601C682143196003689468DD4316
:1032A8002C409460D1682940D160417910290BBF26
:1032B800916801F18042194302F59E3205BF916081
:1032C800D16811680B4316BF0B43D360136070BD00
:1032D80003F1804303F59E331A6822EA010119605D
:1032E80070BD00BF003C014000230C220360037145
:1032F800427183717047024A13691843106170471D
:10330800003C0140034B5B69184214BF01200020B8
:10331800704700BF003C0140014B5861704700BF37
:10332800003C0140034B5B69184214BF0120002098
:10333800704700BF003C0140014B5861704700BF17
:10334800003C014008B5134B984207D14FF40010D8
:103358000121FDF717FD4FF4001014E00E4B9842C1
:1033680007D14FF480000121FDF70CFD4FF48000D8
:1033780009E00A4B98420BD14FF400000121FDF7F8
:1033880001FD4FF400000021BDE80840FDF7FABC3C
:1033980008BD00BF0054004000580040005C0040D9
:1033A8007FB5868826F03F060446360468460D46F3
:1033B800360CFDF7D5FB029A2C48B2FBF0F081B22F
:1033C8000E43A68023882A4E23F001031B041B0CFE
:1033D80023802B68B3420AD85B000131B2FBF3F3B8
:1033E8009BB2032B89B298BF0423218423E0EE8883
:1033F8004BF6FF718E421BBF19214B4303EB43036E
:10340800B2FBF3F315BF9BB2B2FBF3F343F4804373
:103418009BB2C3F30B020AB943F001034FF4967150
:1034280001FB00F24FF47A7192FBF1F2013292B291
:1034380043F400432284A38323886989AA889BB222
:1034480043F001032380238823F4816323F00203DC
:103458001B040A431B0C13439BB223802A89AB89A4
:1034680013439BB2238104B070BD00BF40420F00DC
:10347800A086010041F288330360002383804BF665
:10348800FF72038143814FF48043C2808381704778
:10349800038819B19BB243F0010303E023F0010351
:1034A8001B041B0C03807047838C21B123F010038D
:1034B8001B041B0C02E09BB243F01003838470478B
:1034C800838C9BB201F00F0123F00F030B4383841D
:1034D8007047038819B19BB243F4807303E023F467
:1034E80080731B041B0C03807047038819B19BB2BF
:1034F80043F4007303E023F400731B041B0C0380E4
:10350800704712B141F0010101E001F0FE0189B2FA
:1035180001827047038819B19BB243F4806303E0CA
:1035280023F480631B041B0C0380704783899BB2C0
:1035380001F0FE0123F0FE030B438381704783896A
:1035480019B19BB243F0010303E023F001031B040C
:103558001B0C83817047038819B19BB243F0400369
:1035680003E023F040031B041B0C0380704703880F
:1035780029B16FEA43436FEA53439BB201E0C3F3B7
:103588000E0303807047038819B99BB243F0800388
:1035980003E023F080031B041B0C03807047838B1C
:1035A800B1F5804F1BBF23F480431B049BB21B0C57
:1035B80008BF43F48043838370470388B1F5006FE5
:1035C80015BF23F400639BB21B0443F4006318BFC8
:1035D8001B0C038070470388B1F5005F15BF23F407
:1035E80000539BB21B0443F4005318BF1B0C038009
:1035F8007047038819B19BB243F0100303E023F02E
:1036080010031B041B0C0380704701827047008A5B
:10361800C0B27047038819B19BB243F4805303E0EA
:1036280023F480531B041B0C038070470388B1F5F7
:10363800006F15BF23F400639BB21B0443F40063BF
:1036480018BF1B0C03807047038819B19BB243F065
:10365800200303E023F020031B041B0C03807047A6
:10366800008BC0F307207047838819B19BB243F4DD
:10367800006303E023F400631B041B0C8380704782
:10368800838819B19BB243F4805303E023F4805339
:103698001B041B0C8380704782B0002301930190A8
:1036A800019B19440191019B188880B202B07047B0
:1036B80083889BB20AB1194301E023EA01018180A2
:1036C8007047838A9AB2038B10B542EA034321F00C
:1036D8007F4404EA0300431A5842584110BD838AC4
:1036E800008B9BB243EA004020F07F40704782B0D5
:1036F8000023009301930B0F01900093009B21F08E
:103708007F4113B1019B143302E0019B090C18336C
:103718000193019B1B68194214BF0120002002B0CD
:103728007047C94389B2818270478388808A80B292
:1037380008409BB206D001F0E06113EA114314BFC0
:10374800012000207047C94389B28182704700BFB9
:1037580008B54FF400600121FDF714FB4FF4006039
:103768000021BDE80840FDF70DBB034A536823F468
:10377800C073184350607047002C004082B0084A5C
:1037880000230193536823F07F030193019B00F00A
:103798007F0003430193019B536002B0704700BF51
:1037A800002C0040014B01221A607047A48005429A
:1037B800024B00F07F001860704700BF002C0040EB
:1037C800024B40F080001860704700BF002C00409A
:1037D800024B9868003018BF01207047002C004049
:1037E800014B00229A607047002C00402DE9F041FF
:1037F8008EB00646002506A80C4617469846019541
:1038080000F086FE012E1CBF042302934FF0100324
:10381800039302A84FF0800308BF0295049300F0B9
:1038280032FE23681BBA0893636806A81BBA09937B
:1038380000F05AFE00F092FE012000F097FE00F022
:103848008DFF68B3149E00250124454524D21CB37E
:10385800785900F097FE7B19586800F093FE002312
:103868000193102000F082FF019B01330193019B1B
:10387800B3F5803F02D00028F3D100E048B900F04A
:1038880087FE306000F084FE083646F8040C0124F8
:1038980000E000240835D8E7002000F067FE204645
:1038A8000EB0BDE8F0812DE9F04393B081460027C2
:1038B8000AA80D46144698461A9E019700F028FE5D
:1038C800B9F1010F1CBF042302934FF018030393AF
:1038D80002A84FF0800308BF0297049300F0D3FDBD
:1038E8002B681BBA0C936B680AA81BBA0D9300F0DF
:1038F800FBFD23681BBA0693636806A81BBA0793E7
:1039080000F010FE00F02AFE012000F02FFE00F06B
:1039180025FF78B31B9F00250124B54226D22CB37E
:1039280058F8050000F02EFE08EB0503586800F073
:1039380029FE00230193102000F018FF019B01339A
:103948000193019BB3F5803F02D00028F3D100E03A
:1039580048B900F01DFE386000F01AFE083747F835
:10396800040C012400E000240835D6E7002000F00C
:10397800FDFD204613B0BDE8F083000008B5254BD7
:10398800984207D14FF480500121FDF707FA4FF410
:10399800805039E0204B984207D14FF480400121F4
:1039A800FDF7F0F94FF4804009E01C4B98420BD129
:1039B8004FF400400121FDF7E5F94FF400400021E4
:1039C800BDE80840FDF7DEB9154B984207D14FF422
:1039D80000500121FDF7E2F94FF4005014E0114BBB
:1039E800984207D14FF480100121FDF7D7F94FF421
:1039F800801009E00C4B98420BD14FF400100121C4
:103A0800FDF7CCF94FF400100021BDE80840FDF7A0
:103A1800C5B908BD0030014000380040003C0040F6
:103A280000340140005001400054014003884A8896
:103A380010B503F441540B8813438A881343CA888A
:103A480013430A8913434A8913438A891343CA894A
:103A5800134323439BB20380838B23F400631B042B
:103A68001B0C83830B8A038210BD838B23F47B6337
:103A780023F00F031B041B0C8383022303848B682E
:103A8800F0B5848B022BA4B239D0294F8A88002A3A
:103A9800BA6814BF4FF0020E4FF0010E120242BF77
:103AA800BA6822F40002BA60D7F88460D7F8845064
:103AB8007A68C6F3881602F03F071E4AB2FBF7F28F
:103AC8005643CA88B2F5007FC5F302754FF00A0263
:103AD800B6FBF5F50EBF2D0A4FEA4E16B5FBF6F507
:103AE8006A43B2FBF3F305330A229BB2B3FBF2F34A
:103AF80003F001021202C3F34F0392B200E0002266
:103B08009D1EADB2FE2D24BF002202231343CA8896
:103B180013439BB203840B888A881C434B8844F464
:103B28000064234313438A8913439BB28383F0BD04
:103B38000038024000127A0000230380438083800B
:103B4800C380038143818381C38107230382704734
:103B580000230222038043808380C38082608381A4
:103B68007047038819B19BB243F0400303E023F088
:103B780040031B041B0C03807047838B19B19BB255
:103B880043F4806303E023F480631B041B0C8383EA
:103B98007047038823F400631B041B0C038003880D
:103BA8009BB21943018070470388B1F5804F15BF58
:103BB80023F480439BB21B0443F4804318BF1B0CBF
:103BC800038070474FF6FF63994203880BBF23F4C5
:103BD80080739BB21B0443F4807308BF1B0C0380E3
:103BE8007047838819B19BB243F0040303E023F0C4
:103BF80004031B041B0C83807047838819B19BB294
:103C080043F0100303E023F010031B041B0C838014
:103C18007047838B23F47B6323F00F031B0430B5B9
:103C28001B0C0C8883830223038424F40074828B86
:103C38008B88A4B2002C4C8892B242EA040242F467
:103C4800006243EA02038A8943EA02030CBF4FF485
:103C5800807500259BB22B43838330BD808980B259
:103C6800704781817047038819B19BB243F40053B0
:103C780003E023F400531B041B0C038070470388E4
:103C88009BB243F4805303807047012914BF008B13
:103C9800808A80B27047008A80B2704783889BB25E
:103CA8000AB1194301E023EA01018180704709093B
:103CB80001238B409BB21AB1828892B2134303E06E
:103CC800828892B222EA03038380704703891942EB
:103CD80014BF012000207047C94389B20181704791
:103CE80010B584880389012201F00F009BB202FA03
:103CF80000F01840A4B205D009098A40144214BF44
:103D08000120002010BD01F00F0101238B40DB438F
:103D18009BB20381704700BF08B520200121FDF741
:103D280019F820200021BDE80840FDF713B80F4B13
:103D38001A6822F4802222F0F00210B51A6090E886
:103D480014001968114382680A432243402C1A6000
:103D580007D11A6822F480321A601968C2680A43C7
:103D68001A601A6842F004021A6010BD0004065076
:103D78000023036043608360C3607047024A13688E
:103D880043F004031360704700040650044B9A681C
:103D980022F01F029A609A6810439860704700BF2B
:103DA80000040650014B5860704700BF00040650DD
:103DB800024B1868C0F30320704700BF0004065088
:103DC800094BDA6802601A6942605A6982609A6926
:103DD800C260DB690361054B5A6942619A69826175
:103DE800DB69C361704700BF000406501007065026
:103DF800024A936843F48073936070470004065046
:103E0800094B1A6A02609A6842601A6840F8082FDB
:103E1800002202F13E01013253F8211040F8041F3C
:103E2800362AF6D1704700BF000406500B4B0268D3
:103E380010B51A6242689A6050F8082F1A601A681A
:103E480042F004021A60002202F13E01013250F8E9
:103E5800044F43F82140362AF6D110BD000406501D
:103E6800044B1A6810B122F4005201E042F40052E7
:103E78001A60704700040650044B1A6810B142F0EB
:103E8800080201E022F008021A6070470004065098
:103E9800044B1A6A09B1104301E022EA00001862D3
:103EA800704700BF00040650054B10F4805F14BF34
:103EB8001B685B6A034214BF01200020704700BFE3
:103EC80000040650014BC043586270470004065076
:103ED800044A536A126A1340034214BF01200020A7
:103EE800704700BF00040650014BC043586270473A
:103EF80000040650014BC0B218707047003C0240E5
:103F0800044B1A6810B142F4807201E022F4807206
:103F18001A607047003C0240044B1A6810B142F422
:103F2800007201E022F400721A607047003C0240FF
:103F3800044B1A6810B142F4806201E022F48062F6
:103F48001A607047003C0240024A136843F4006359
:103F580013607047003C0240024A136843F48053E0
:103F680013607047003C0240044B1A69002ABFBF27
:103F7800034A5A6002F188325A607047003C024096
:103F880023016745024A136943F0004313617047F0
:103F9800003C0240044B5A69D20741BF034A9A6069
:103FA80002F144329A607047003C02403B2A1908EB
:103FB800024A536943F0010353617047003C0240D1
:103FC800034A137803F07F0318431070704700BF4B
:103FD800173C0240044B1A7802F0EF021A701A7864
:103FE80010431870704700BF143C0240044B1A7805
:103FF80002F0F3021A701A7810431870704700BF65
:10400800143C0240024B5869C0F34710704700BF88
:10401800003C0240014B188880B27047163C0240B1
:10402800014B188880B270471A3C0240014B18882F
:1040380080B27047163C0240014B188880B2704726
:104048001A3C0240024B1878AA3818BF0120704762
:10405800153C0240024B187800F00C00704700BF76
:10406800143C0240044B1A6909B1104301E022EAEA
:1040780000001861704700BF003C0240034BDB683A
:10408800184214BF01200020704700BF003C0240C6
:10409800014BD860704700BF003C02400E4BDA6805
:1040A800D20310D4DA68D1060FD4DA68D2050ED458
:1040B800DA6812F0EF0F0CD1DB6813F0020F14BFAF
:1040C8000820092070470120704706207047022009
:1040D80070470720704700BF003C024007B509231E
:1040E8008DF80730FFF7DAFF8DF807009DF80730E5
:1040F800012BF7D09DF8070003B05DF804FB70B5FD
:10410800064641B1012908D002290CBF4FF40075B9
:104118004FF4407503E00D4601E04FF48075FFF75A
:10412800DDFF09281ED1104C236923F44073236155
:10413800216929432161236923F0F8032361236955
:1041480043F002031E432661236943F4803323614D
:10415800FFF7C4FF236923F002032361236923F0D7
:10416800F803236170BD00BF003C024010B504464F
:10417800FFF7B4FF44B1012C08D0022C0CBF4FF458
:1041880000734FF4407303E0234601E04FF480735B
:10419800092819D10D4C226922F440722261226942
:1041A80013432361236943F4004343F00403236169
:1041B800236943F480332361FFF790FF236923F4D5
:1041C800004323F00403236110BD00BF003C0240FC
:1041D80010B50446FFF782FF44B1012C08D0022C29
:1041E8000CBF4FF400734FF4407303E0234601E023
:1041F8004FF48073092815D10B4C226922F44072C0
:104208002261226913432361236943F00403236174
:10421800236943F480332361FFF760FF236923F0A8
:104228000403236110BD00BF003C024010B50446E2
:10423800FFF754FF44B1012C08D0022C0CBF4FF4F7
:1042480000734FF4407303E0234601E04FF480739A
:10425800092815D10B4C226922F440722261226987
:1042680013432361236943F400432361236943F41F
:1042780080332361FFF732FF236923F4004323616E
:1042880010BD00BF003C0240F8B5054616461F4663
:10429800FFF724FF092814D10A4C236923F440733B
:1042A8002361236943F440732361236943F00103C5
:1042B8002361C5E90067FFF711FF236923F00103B4
:1042C8002361F8BD003C024070B505460E46FFF775
:1042D80005FF092813D10A4C236923F4407323618D
:1042E800236943F400732361236943F001032361C5
:1042F8002E60FFF7F3FE236923F00103236170BDED
:10430800003C024070B505460E46FFF7E7FE092857
:1043180013D10A4C236923F440732361236943F4BE
:1043280080732361236943F0010323612E80FFF723
:10433800D5FE236923F00103236170BD003C0240D0
:1043480070B505460E46FFF7C9FE092811D1094C7C
:10435800236923F44073236123692361236943F0AC
:10436800010323612E70FFF7B9FE236923F00103CF
:10437800236170BD003C024038B504460D46FFF786
:10438800ADFE092809D1054B18881DB180B220EA75
:10439800040001E0204380B2188038BD163C02407A
:1043A80038B504460D46FFF799FE092809D1054B93
:1043B80018881DB180B220EA040001E0204380B2D1
:1043C800188038BD1A3C024038B504460D46FFF740
:1043D80085FE092809D1054B188815B1204380B2FC
:1043E80002E080B220EA0400188038BD163C024082
:1043F80038B504460D46FFF771FE092809D1054B6B
:10440800188815B1204380B202E080B220EA040087
:10441800188038BD1A3C024010B50446FFF75EFE0E
:10442800092804BF014B1C7010BD00BF153C024099
:1044380070B506460C461546FFF750FE092809D107
:10444800054B187800F01F00304345EA000244EAA3
:104458000201197070BD00BF143C0240034A137872
:1044680043F002031370FFF739BE00BF143C02404B
:1044780008B510200121FCF76DFC10200021BDE8D3
:104488000840FCF767BC144B1A6822F4002222F09B
:10449800380210B51A601A6841680A431A601A6827
:1044A80022F0C0021A601C68826822431A6031F048
:1044B800180207D01A6822F440721A601968C26894
:1044C8000A431A601A6822F004021A60196802681E
:1044D8000A431A6010BD00BF0000065000230360A5
:1044E80043608360C3607047084B02681A62426881
:1044F8005A6282689A62C268DA6202691A63426919
:104508005A6382699A63C269DA6370470000065089
:104518000023036043608360C36003614361836178
:10452800C3617047044B02681A6442685A6482681F
:104538009A64C268DA64704700000650002303607A
:1045480043608360C3607047034A136823F44033B1
:1045580018431060704700BF00000650024A1368F5
:1045680043F480431360704700000650044B1A68F8
:1045780010B142F4004201E022F400421A60704790
:1045880000000650014B9860704700BF00000650BD
:10459800014BD868704700BF0000065073B5002370
:1045A8000193364B1A6922F001021A611B6813F055
:1045B800080F14BF11221522304B5D68019C01348D
:1045C8000194019E4FF6FF74A64205EA02051C46B7
:1045D80001D0012DF0D16468284B2240012A49D12D
:1045E8001C6924F002041C611C6824F400441C604B
:1045F8001D68234C2C4004601C6C44605C6C846017
:104608009C6CC460DC6C04610C6844614C68846117
:104618008C68C461CC6804620C6944624C69846229
:104628008C69C969C4620163196D4163596D8163FD
:10463800996DC163D96D0164196E4164596E8164C5
:10464800996EC164D96E0165196F4165596F8165AD
:10465800996FC165D96F0166D3F880104166D3F8A8
:1046680084108166D3F88810C166D3F88C3003674C
:10467800104600E0002002B070BD00BF00000650E8
:10468800FC030B00214B02681A6042691A628269B6
:104698005A62C2699A62026ADA62426A1A63826A72
:1046A8005A63C26A9A63026BDA6342681A64826860
:1046B8005A64C2689A640269DA64426B1A65826B4A
:1046C8005A65C26B9A65026CDA65426C1A66826C2E
:1046D8005A66C26C9A66026DDA66426D1A67826D16
:1046E8005A67C26D9A67026EDA67426EC3F8802015
:1046F800826EC3F88420C26EC3F88820026FC3F8A4
:104708008C201A6842F400421A6070470000065074
:10471800054A136909B1184303E023EA000000F0D1
:10472800FF001061704700BF00000650054A53693A
:1047380009B1184303E023EA000000F0FF005061CC
:10474800704700BF00000650034BDB69184214BFD6
:1047580001200020704700BF00000650024B186877
:10476800C0F3C030704700BF00000650054B10F082
:10477800200F14BF9B695B68034214BF012000200F
:10478800704700BF00000650054B00221F211A6029
:10479800DA6059619A61DA611A625A62704700BF39
:1047A80000000550418802880A43818810B50C4CE6
:1047B8000A43C18823680A43018923F4804323F00C
:1047C80001030A434189236023680A43818923F44A
:1047D8007F630A4323F0020392B21343236010BDA0
:1047E800000005500023038043808380C380038139
:1047F80043818381704702884388818843EA024362
:10480800034A1362C38843EA01435362704700BFF7
:1048180000000550044B1A6810B142F0040201E090
:1048280022F004021A60704700000550837842782D
:104838001B0443EA022302781343C27843EA026363
:10484800014A9361704700BF00000550044B1A6885
:1048580010B142F0080201E022F008021A60704725
:1048680000000550044B1A6810B142F4804201E080
:1048780022F480421A60704700000550044B1A6801
:1048880010B142F0010201E022F001021A60704703
:1048980000000550014B986A704700BF00000550A2
:1048A800044BDA6809B1104302E0C04380B21040FB
:1048B800D860704700000550020B064B01D19B6879
:1048C80003E0022A0CBF5B681B69034214BF012086
:1048D8000020704700000550014B5861704700BF29
:1048E80000000550034B1B69184214BF012000202B
:1048F800704700BF00000550014B5861704700BF6A
:1049080000000550014B1860704700BF00300040A0
:10491800014B5860704700BF00300040014B986061
:10492800704700BF00300040024B4AF6AA221A60C6
:10493800704700BF00300040024B4CF6CC421A6072
:10494800704700BF00300040034BDB68184214BFBB
:1049580001200020704700BF0030004008B54FF428
:1049680080000121FCF71AFA4FF480000021BDE80D
:104978000840FCF713BA91E80C001A438B681A43F5
:10498800CB681A430B691A434B691A438B691A435C
:10499800CB6910B51A430468064B234013430A6ACF
:1049A80043EA02530360436823F003024B6A13434C
:1049B800436010BD10C007FF0B698A681A43CB68B3
:1049C80010B51A438468064B23401A430B68013B11
:1049D8001A434B68013B42EA0323836010BD00BFC2
:1049E8000080F8FFC26810B591E8180022F47D62D3
:1049F8001C4322F00F02CB6812042343120C1A4303
:104A08008B68013B42EA0323C36010BD00234022A8
:104A1800036043608260C360036143618361C36173
:104A280003624362704708234FF0010C80E80810C6
:104A380000238360C3600361704700230122036081
:104A480043608260C3607047036811B143F48033E8
:104A580001E023F4803303607047036823F4805334
:104A68000360036843F4805303607047036823F4CA
:104A780080530360036843F48053036070474368BE
:104A880023F44043436043681943416070474368D7
:104A980011B143F0200301E023F020034360704785
:104AA800436823F0400343604368194341607047FB
:104AB800436823F4FC534360436843EAC1114160EF
:104AC8007047436843F0080343607047C069704704
:104AD800C1617047036811B143F4003301E023F466
:104AE80000330360704703690AB1194301E023EA00
:104AF8000101016170474369194214BF0120002078
:104B080070478369194381617047036940690840A8
:104B180003D0194214BF012000207047836919434C
:104B2800816170470068C0F300407047406900F435
:104B3800E020704740F0BF60024B40F40030D8607E
:104B4800704700BF00ED00E0C278037810B512B3DB
:104B5800164AD1684278C943C1F30221C1F104045D
:104B6800E4B2A240D4B20F220A4181780A4022431B
:104B780003F1604303F561431201D2B283F80023C5
:104B880003780122590903F01F0302FA03F3084AC4
:104B980042F8213010BD5A09012103F01F03994042
:104BA80002F12003024A42F8231010BD00ED00E094
:104BB80000E100E021F0604121F07F01014B084352
:104BC8009860704700ED00E0044B1A6909B1104382
:104BD80001E022EA00001861704700BF00ED00E024
:104BE800044B1A6804280CBF42F0040222F00402A5
:104BF8001A60704710E000E000230928DAB203F1D8
:104C0800010302D90A38C0B2F7E740EA0210C0B27D
:104C18007047030903EB830300F00F0000EB430028
:104C2800C0B2704700217F22FF2380E80E00704742
:104C3800044B08B1FF2202E0CA225A6253225A6288
:104C4800704700BF0028004082B0002301930D4B3D
:104C5800DA68520613D44FF0FF32DA60094BDA688B
:104C68000199013101910199B1F5803F02F04002AB
:104C780001D0002AF2D0D868C0F3801000E00120EB
:104C880002B0704700280040024AD36823F080032E
:104C9800D36070470028004038B50F4CCA236362C0
:104CA800532363620546FFF7CFFF88B1A36823F05B
:104CB8004003A360A2682B681343A360AB68236119
:104CC80023696A6843EA02432361FFF7DDFF012095
:104CD800014BFF225A6238BD0028004082B00023F1
:104CE80001930E4BCA225A6253225A62DA6822F0A2
:104CF800A002DA60094BDA68019901310191019942
:104D0800B1F5003F02F0200201D0002AF2D0D868A5
:104D1800FF22C0F340105A6202B0704700280040DA
:104D280037B5204CCA23002501956362532363627B
:104D3800FFF78AFF08B900202FE042F2011325602F
:104D48006360A36803F00703A360164BD968019A50
:104D580001320192019AB2F5803F01F004011A462E
:104D680001D00029F1D0D2680E4B5207E3D59A68DA
:104D78004FF6FF7100229A6059610B4919619A61D7
:104D8800DA611A62DA62DA635A649A64DA601A6477
:104D9800FFF7A4FF003018BF0120024BFF225A6220
:104DA80003B030BD00280040FF007F0038B50B4C31
:104DB800CA236362532363620546FFF745FF50B178
:104DC800A36815B143F0100301E023F01003A360BA
:104DD800FFF75AFF0120FF23636238BD0028004017
:104DE800074BCA225A6253225A629A6810B142F09B
:104DF800200201E002F0DF029A60FF225A62704747
:104E080000280040F8B5244B0C784D788F789B68C3
:104E18000E4620B913F0400326D1CB7024E013F0DE
:104E2800400300D1CB70280240EA0440F4783843AC
:104E380040EA0444184DCA236B6253236B62FFF7A0
:104E480003FF20B304F07F3020F0FE402860FFF716
:104E58001BFFAB689B0605D4FFF740FF003018BF67
:104E6800012014E0012012E02046FFF7C5FE0446A9
:104E78002846FFF7C1FE05463846FFF7BDFEF37822
:104E880040EA034040EA044040EA0524D2E7024BE6
:104E9800FF225A62F8BD00BF002800400023C370FB
:104EA80003704370837070470F4B1B6870B5C3F372
:104EB8000542C3F3062603F07F0503F480031B0CA9
:104EC8000C460A704E708D70CB7058B91046FFF7BB
:104ED800A0FE20703046FFF79CFE60702846FFF762
:104EE80098FEA07070BD00BF00280040014B986A72
:104EF8005B68704700280040F8B50F464B78CC78BF
:104F08008D780E7880BBDA0603D523F010020A32BA
:104F18004A702046FFF770FE04467878FFF76CFE6B
:104F280007462846FFF768FE40EA463040EA044054
:104F380040EA0724124DCA236B6253236B62FFF7C2
:104F480083FEC0B124F07F4020F0C0006860FFF706
:104F58009BFEAB689B0605D4FFF7C0FE003018BF68
:104F6800012008E0012006E0180240EA0440284336
:104F780040EA4634DEE7024BFF225A62F8BD00BF22
:104F88000028004001230370837043700023C3701E
:104F980070470F4B5B6870B5C3F30742C3F3042631
:104FA80003F03F05C3F342330C46CA704E708D7050
:104FB8000B7058B91046FFF72CFEE0703046FFF72B
:104FC80028FE60702846FFF724FEA07070BD00BF61
:104FD800002800402DE9F84F0D461646264BD2F81A
:104FE800049097689478117892F801A092F80C8050
:104FF80028B99B6813F0400321D1D3701FE09A6849
:1050080012F0400200D1F27049EA0700204340EA5A
:105018000140F37840EA0A2040EA034040EA086089
:10502800154BCA225A6253225A62B5F5807F4FF057
:10503800FF020CBFD86118625A62BDE8F88F0846B3
:10504800FFF7DAFD83465046FFF7D6FD8246204635
:10505800FFF7D2FD04464046FFF7CEFDF37849EA54
:10506800070747EA0343234343EA0B4444EA0A2475
:1050780044EA0060D4E700BF002800400023012272
:10508800C37003704370837083600273436070471A
:10509800F8B5174BB1F5807F0CBFDB691B6AC3F30A
:1050A8000541C3F3062703F07F06144611705770B5
:1050B800967003F48002120CC3F30565E27003F0E6
:1050C800804203F080332573A260636078B9084694
:1050D800FFF79FFD20703846FFF79BFD6070304654
:1050E800FFF797FDA0702846FFF793FD2073F8BDE2
:1050F8000028004082B000230193144BCA225A6250
:1051080053225A629A6819B110439860012017E037
:1051180022EA00029A60000A0C4BDA680199013110
:1051280001910199B1F5803F02EA000205D1DB68DF
:10513800184214BF0120002002E0002AECD0F6E754
:10514800024BFF225A6202B0704700BF002800409D
:1051580010B5074BCA245C620A43B0F5807F4FF054
:1051680053045C620CBF5A649A64FF225A6210BDF1
:1051780000280040044BB0F5807F0CBF586C986C39
:10518800C0F30E00704700BF00280040074BCA223A
:105198005A6253225A629A6822F007029A609A6801
:1051A8001043FF2298605A62704700BF00280040F1
:1051B800044BCA225A6253225A62FF2258615A6229
:1051C800704700BF00280040014B586980B2704703
:1051D8000028004082B000230193124BCA225A6271
:1051E80053225A629A6820B142F480629A60012080
:1051F80012E022F480629A600A4BDA680199013160
:1052080001910199B1F5803F02F0040201D0002A12
:10521800F2D0D868C0F38000024BFF225A6202B075
:10522800704700BF00280040074BCA225A62532229
:105238005A629A6822F480229A609A681143084355
:10524800FF2298605A62704700280040024B986815
:1052580000F48020704700BF00280040074BCA2296
:105268005A6253225A629A6822F4E0029A609A6853
:1052780011430843FF2298605A6270470028004093
:1052880070B5094CCA2363625323636206460D4610
:10529800FFF7DAFC20B13543A561FFF7F5FC0120E3
:1052A800FF23636270BD00BF0028004038B50B4C77
:1052B800CA236362532363620546FFF7C5FC50B1F6
:1052C800A36815B143F0800301E023F08003A360D5
:1052D800FFF7DAFC0120FF23636238BD0028004095
:1052E800074BCA225A6253225A629A6810B142F492
:1052F800000201E022F400029A60FF225A6270471D
:1053080000280040074BCA225A6253225A629A6800
:1053180022F400229A609A681043FF2298605A6229
:10532800704700BF002800400E4B10B5CA245C62CD
:1053380053245C62DB68DB0306D50B4B094CE4683D
:10534800E40301D5013BF9D1064BDC68E4035CBFFB
:105358000A4310434FF0FF0256BFD86300200120D4
:105368005A6210BD0028004001000200084A9368F4
:1053780023F4006323F0080309B143F40063CA214E
:1053880051620343532151629360FF235362704774
:105398000028004038B514461A4A136B526B0D4664
:1053A800C3F305412970C3F30621697003F07F0137
:1053B80003F480031B0CEB700023A970E370C2F3A5
:1053C8000423637002F03F03C2F34232A3702270D9
:1053D800B8B92878FFF71DFC28706878FFF719FC22
:1053E8006870A878FFF715FCA8706078FFF711FCC3
:1053F8006070A078FFF70DFCA0702078FFF709FC1B
:10540800207038BD00280040014B986B704700BFE2
:1054180000280040044B40001A6C11B922EA000031
:1054280000E010431864704700280040044B1A6CD1
:1054380009B1104301E022EA00001864704700BF78
:1054480000280040044B1A6C22F4C0521A641A6CEB
:1054580010431864704700BF00280040044B1A6CC2
:1054680022F4E0621A641A6C10431864704700BF93
:1054780000280040044B1A6C22F4C0421A641A6CCB
:1054880010431864704700BF00280040044B1A6C92
:1054980010B142F0800201E022F080021A647047E5
:1054A80000280040044B1A6C10B122F4004201E0BD
:1054B80042F400421A6470470028004082B000237A
:1054C8000193054B0193019B03EB80000190019B25
:1054D800196002B0704700BF5028004082B0002316
:1054E8000193054B0193019B03EB80000190019B05
:1054F800186802B0704700BF50280040044B1A6C6F
:1055080022F480321A641A6C10431864704700BF82
:1055180000280040044B1A6C22F400321A641A6CFA
:1055280010431864704700BF00280040044B1A6CF1
:1055380022F480221A641A6C10431864704700BF62
:1055480000280040134BCA2210B55A6253225A62EF
:10555800DB681C0707D541F201030E4AD26812071F
:1055680001D5013BF9D10B4AD36813F008030AD1DE
:105578009468E40609D40843D062FFF7AFFB003013
:1055880018BF012002E0002000E01846014BFF226E
:105598005A6210BD002800400E4BCA2210B55A624C
:1055A800532220F004045A6200F0040031B19968D3
:1055B80044EA01029A601A6C104306E09A6822EAEB
:1055C80004029A601A6C22EA00001864014BFF2258
:1055D8005A6210BD00280040074BDB6823F07F4368
:1055E80023F47E0323F4404323F08003034214BFD3
:1055F80001200020704700BF00280040054AD368FA
:1056080080B240F0800003F0800363EA0003D360B7
:10561800704700BF002800400A490B6C8A6803F0F5
:10562800040310B5CC6803EAD03100EA02030B4347
:1056380006D0A3B213EA101314BF0120002010BD36
:10564800184610BD00280040054AD368C0F30F1063
:1056580040F0800003F0800363EA0003D3607047E2
:105668000028004008B54FF000500121FBF78AFBE5
:105678004FF000500021BDE80840FBF783BB30B570
:10568800084D40F6FE732A68834022EA030491E835
:105698000C001A438B681343CA681343834023439F
:1056A8002B6030BD007400400023036043608360BA
:1056B800C3607047064A012319B1116883400B4340
:1056C80003E01168834021EA03031360704700BFB9
:1056D80000740040064A0009012319B1516883404B
:1056E8000B4303E05168834021EA0303536070478A
:1056F80000740040044B5A6810B142F0030201E004
:1057080022F003025A60704700740040054B814044
:1057180012B11A68114302E01A6822EA01011960FD
:10572800704700BF0074004082B000230193054B0E
:105738000193019B083318440190019B196002B042
:10574800704700BF0074004082B000230193054BEE
:105758000193019B143318440190019B196002B016
:10576800704700BF007400400828044B0CBF42EA91
:10577800012242EA0142C250704700BF2074004033
:1057880082B000230193064B0193019B2C3303EB5A
:1057980090000190019B186880B202B0704700BF6A
:1057A80000740040064A4FF4805319B111688340D1
:1057B8000B4303E01168834021EA03031360704739
:1057C80000740040054B814012B11A68114302E091
:1057D8001A6822EA01011960704700BF007400408E
:1057E800034B5B6B8140194214BF012000207047B6
:1057F80000740040014B81405963704700740040B9
:10580800054B81401A68586B084003D0114214BFF9
:1058180001200020704700BF00740040014B814008
:10582800596370470074004008B54FF48040012167
:10583800FBF7B4FA4FF480400021BDE80840FBF7BD
:10584800ADBA014B1860704700380140014B186031
:10585800704700BF2000274201F0030301F0FC015C
:1058680001F1804101F59C3110B59B008C680F2235
:105878009A4024EA02028A608A68984002438A6051
:1058880010BD014B18607047DC002742014B1860BF
:10589800704700BF00042742024B186AC0F300207B
:1058A800704700BF0038014008B5374B984205D112
:1058B80001200146FBF742FA01205EE0334B984293
:1058C80005D102200121FBF739FA022055E0304BBF
:1058D800984205D104200121FBF730FA04204CE05E
:1058E8002C4B984205D108200121FBF727FA082004
:1058F80043E0294B984205D110200121FBF71EFAFD
:1059080010203AE0254B984205D120200121FBF7D1
:1059180015FA202031E0224B984205D14020012180
:10592800FBF70CFA402028E01E4B984205D1802056
:105938000121FBF703FA80201FE01B4B984207D197
:105948004FF480700121FBF7F9F94FF4807014E0EF
:10595800164B984207D14FF400700121FBF7EEF97E
:105968004FF4007009E0124B98420BD14FF480605D
:105978000121FBF7E3F94FF480600021BDE80840FE
:10598800FBF7DCB908BD00BF00000240000402407C
:1059980000080240000C02400010024000140240BF
:1059A80000180240001C024000200240002402406F
:1059B80000280240F0B50E6800220123934003EA54
:1059C800060E9E452AD1550003230468AB40DB43ED
:1059D8001C4004600C79076804FA05FC013C4CEA99
:1059E8000707012C076011D884684F791C40846030
:1059F8008468AF4027438760446824EA0E04446003
:105A08008C7947689440A4B23C434460C4682340FE
:105A1800C360CB79C468AB402343C3600132102A0A
:105A2800CBD1F0BD4FF6FF730360002303714371C0
:105A38008371C371704782B04FF480330193019B27
:105A48000B430193019BC361C161019BC361C3699E
:105A58000193C369019302B070470369194214BFE7
:105A6800012000207047006980B2704743691942DD
:105A780014BF012000207047406980B2704701833D
:105A88007047418370470AB101837047418370476B
:105A980041617047436959404161704701F007030C
:105AA800C90800EB810010B59B00046A0F219940DA
:105AB80024EA01010162016A9A401143016210BDA2
:105AC80030B5048C24F001042404240C0484048BD1
